:020000041000EA
:1000000000B5324B212058609868022188439860DF
:10001000D860186158612E4B002199600221596106
:100020000121F02299502B49196001219960352056
:1000300000F044F80222904214D00621196600F024
:1000400034F8196E01211966002018661A6600F04E
:100050002CF8196E196E196E052000F02FF8012189
:100060000842F9D1002199601B49196000215960AB
:100070001A491B48016001219960EB211966A021F2
:10008000196600F012F800219960164914480160C1
:100090000121996001BC002800D000471248134993
:1000A000086003C880F30888084703B5996A0420EC
:1000B0000142FBD001200142F8D103BD02B5186610
:1000C0001866FFF7F2FF186E186E02BD00000240BE
:1000D000000000180000070000035F00212200005C
:1000E000F4000018222000A00001001008ED00E03C
:1000F00000000000000000000000000074B24E7A12
:1001000000200420F7010010CB010010CD010010E9
:10011000C9010010C9010010C9010010C901001077
:10012000C9010010C9010010C9010010CF01001061
:10013000C9010010C9010010D1010010D301001045
:10014000C1010010C1010010C1010010C101001067
:10015000C1010010C1010010C1010010C101001057
:10016000C1010010C1010010C1010010C101001047
:10017000C1010010C1010010C1010010C101001037
:10018000C1010010C1010010C1010010C101001027
:10019000C1010010C1010010C1010010C101001017
:1001A000C1010010C1010010C1010010C101001007
:1001B000C1010010C1010010C1010010C1010010F7
:1001C000EFF30580103800BE00BE00BE00BE00BECA
:1001D00000BE00BEF2EB8871C4670010EC6700102F
:1001E0003802001090A31AE71E481F49086006C88D
:1001F00081F3088810471D480068002801D019487D
:10020000F3E70DA40ECC002902D000F012F8F9E7B4
:100210001749184A002000E001C19142FCD116495B
:100220008847164988471649884700BEFDE701C937
:1002300001C29A42FBD37047EC670010C000002057
:100240003C09002068700010000004200000042019
:10025000687000100010042000100420000000004E
:10026000704700000000000008ED00E0000000D032
:100270003C090020CC1100200D490010F5090010A8
:1002800005490010F8B5C0460448054B10B5834237
:1002900003D0044B002B00D0984710BD3C09002030
:1002A0003C0900200000000006480749091A8B108D
:1002B000C90FC91810B5491003D0044B002B00D04A
:1002C000984710BD3C0900203C09002000000000B8
:1002D00010B5074C2378002B09D1FFF7D5FF054B4C
:1002E000002B02D0044800E000BF0123237010BDA2
:1002F000000D0020000000002C610010054B10B51F
:10030000002B03D00449054800E000BFFFF7CCFFF5
:1003100010BDC04600000000040D00202C6100103C
:10032000F0B5DE4657464E46644BC0B518688CB0F3
:100330000368DB689847624B0A901C680B9123683E
:1003400020009B68984704900591049A059B0892A9
:100350000993069207935B4B9B465B4B99465B4B1D
:100360009A467AE0FA239B00984200D99AE02368E3
:1003700020009B68984704900591236820009B68A3
:100380009847069A079B801A9941002902D1504B41
:1003900098421AD9236820009B68984706000F00EE
:1003A00000F022F9236820009B689847801BB94120
:1003B000002900D07EE0FA239B0098427AD8236877
:1003C00020009B68984706900791236820009B684F
:1003D0009847089A099B801A9941002902D13D4B00
:1003E000984219D9236820009B68984706000F009F
:1003F00000F070F9236820009B689847801BB94182
:10040000002953D1FA239B0098424FD8236820003B
:100410009B689847089009915B4618684B465A6854
:1004200053461B689A420ED04B4669460C33066809
:10043000A0CBA0C14B46F66819689B68B0474B46F5
:1004400052465B6813600A980B99029A039B121834
:100450004B4121682000C9688847236820009B68B9
:100460009847236802909B68200003919847049A5C
:10047000059B801A9941002903D1164B984200D858
:100480007BE7236820009B68984706000F0000F078
:100490009DF8236820009B689847801BB94100297C
:1004A00000D15FE7042000F01BF960E7042000F0B2
:1004B00017F9ABE7042000F013F980E7441000209F
:1004C0004010002048100020600900204803002050
:1004D000091A00000F270000F0B587B06C46254BC5
:1004E000186803689B689847234B1E683368300080
:1004F0009B689847214B1F683B6838009B6898476A
:100500003B681F4D390020001B6998472B0007CC22
:1005100007C306CC06C31B4B2A689A4214D0336823
:100520003000DB68184998470023164A2A606B6040
:100530000023EB6001232B6100F04AF800F044F83F
:1005400000F0C4F8FFF7ECFEE86802F071FD02006D
:1005500030680B00C4680D493000A0472B690420A7
:1005600001332B6100F0BCF80948696800F01EF8FF
:10057000E2E7C046441000204C1000204810002044
:1005800060090020EFBEADDE606100103061001038
:10059000281000207047C0467047C04610B50400C0
:1005A000082102F0E1FD200010BDC0464160704707
:1005B00040687047024B034A1A6000225A60704735
:1005C00028100020306300107047C0467047C046B6
:1005D000034B10B5186803490368DB68984710BDE2
:1005E0004C1000207861001070B500F077F8324CA4
:1005F0002000FFF7DDFF314D686000F079F8A8605A
:1006000000F07CF8002819D12D4E3369EB602D4B9A
:10061000186803689B68984730607160200000F09C
:10062000A7F92000FFF7C4FF132806D8264B800047
:100630001B5820009F46FFF7ADFF70BD132120001F
:10064000FFF7B4FFE0E7FFF7A5FFF6E7FFF7A2FF2C
:10065000F3E7FFF79FFFF0E7FFF79CFFEDE7FFF7FA
:1006600099FFEAE7FFF796FFE7E7FFF793FFE4E775
:10067000FFF790FFE1E7FFF78DFFDEE7FFF78AFF67
:10068000DBE7FFF787FFD8E7FFF784FFD5E7FFF742
:1006900081FFD2E7FFF77EFFCFE7FFF77BFFCCE7D5
:1006A000FFF778FFC9E7FFF775FFC6E7FFF772FFAF
:1006B000C3E7FFF76FFFC0E72810002060090020A4
:1006C00040090020401000208863001010B500F0A1
:1006D000FFF810BD10B500F00DF910BD7047C04611
:1006E000024A1368034313607047C046501000204D
:1006F000014B18687047C04650100020034B186823
:100700002C231840431E9841C0B27047501000205F
:1007100010B5042002F020FD024B0360024B18606C
:1007200010BDC046286400104810002010B50420F9
:1007300002F012FD024B0360024B186010BDC04670
:10074000086400104C10002010B5042002F004FDD5
:10075000024B0360024B186010BDC0464464001099
:100760004010002010B5042002F0F6FC024B03609C
:10077000024B186010BDC046F0630010441000200A
:10078000F0B5CE46474680B5060087B00272437288
:100790000160980015000C0002F0E2FC3349F060A3
:1007A000200004F0DDFB01218046200004F0BCFBAA
:1007B0002F4B0700E118090D06317060C9B22800FF
:1007C00000F0D4F9012339002A000093200004F03E
:1007D00049FC80235B020293434642460333D20125
:1007E0001B031343234AAD0213400393F823DB0199
:1007F0001D4080239B052B4305931F4B052004932D
:1008000001F0B8F902F0E6FB1C4902F0C8FBEC214C
:10081000890502F0C1FB814602F004FC85B2002389
:10082000002D0ED0280002F0D5FB011C484602F036
:10083000B0FB8721C90502F0C6FB02F0F3FBC3B28F
:100840001B022D0442461D43390002AB20000295D5
:1008500004F062FC0123BB40300022681343236094
:1008600007B0C0BCB946B046F0BDC046D863001062
:100870000000E0AFFFFFFF9F000006700024F44A75
:1008800030B503AC2578447A8C4206D91B04C06885
:100890002B431202890013430B5030BDF0B5467A4A
:1008A000002E13D0456801212B0010330268C76861
:1008B000994000200435AD008300FC5824025368A1
:1008C0001942FCD10130AC50B042F5DBF0BDC0465E
:1008D00010B5102002F040FC04000123102203494F
:1008E000FFF74EFF024B1C6010BDC04600002050B9
:1008F000A4110020194BF0B5186883B003689B68F9
:100900009847174E0400326873680D00801A9941A9
:100910000A1E02D1134B984215D90121124A134FD6
:10092000137838684B40137000280AD0002B0CD184
:100930000093002200230021FFF7A2FF3868FFF791
:10094000ADFF3460756003B0F0BD322332220093F6
:1009500000210023FFF794FFF0E7C046401000207D
:10096000780900201FA10700C8110020A411002051
:1009700010B51F4C2000FFF71BFE2000FFF718FEEC
:100980002000FFF715FE2000FFF712FE2000FFF702
:100990000FFE2000FFF70CFE2000FFF709FE2000ED
:1009A000FFF706FE2000FFF703FE2000FFF700FE22
:1009B0002000FFF7FDFD2000FFF7FAFD2000FFF704
:1009C000F7FD2000FFF7F4FD2000FFF7F1FD200008
:1009D000FFF7EEFD2000FFF7EBFD2000FFF7E8FD3D
:1009E0002000FFF7E5FD2000FFF7E2FD10BDC04647
:1009F0002810002010B504F0BBF8FFF76DFD0020B3
:100A000010BDC046002101487047C0468813000051
:100A10007047C04610B50400042102F0A5FB200079
:100A200010BDC04600B585B0094803AB02AA01A9B4
:100A300001F082F9002803D10648054900F0B0F81A
:100A4000039A0299019801F09BF805B000BDC046D9
:100A5000880702009C6100107047C04610B504F082
:100A600087F810BD0EB400B582B003A901C9019189
:100A700004F0EEF80A2004F081F802B008BC03B0DC
:100A80001847C04610B50968014804F04BF910BD7D
:100A9000D061001010B50968014804F043F910BD99
:100AA000E061001010B50400042102F05DFB20009D
:100AB00010BDC0467047C0467047C04610B5040020
:100AC000034B1422196802F041FB200010BDC04600
:100AD0004C03002084B070B5C0B06D46459146927D
:100AE0000021EC2205A8479302F02AFB2B0045AC1D
:100AF00007CC07C306CC06C3EFF3108672B680217D
:100B0000084C4901200005F0D3FA8022290020007A
:100B1000520005F0BDFA86F3108840B070BC08BCE6
:100B200004B0184700F01F0010B50400042102F0C3
:100B30001BFB200010BDC0467047C04610B500F03A
:100B40004DFE10BD10B51000190000F039FD10BDAC
:100B500010B51000190000F09FFD10BD10B5040085
:100B6000042102F001FB200010BDC046094A8300A9
:100B70009A1810B514684022544080322240064C26
:100B8000C000A44663441A60044B9C466044416024
:100B900010BDC04604C0014004D0014000400140E7
:100BA0000FB400B5084883B004F034F8049B002B60
:100BB00007D005A91800019103F070FE034804F066
:100BC00029F8012003F082FEEC610010FC610010A6
:100BD000EFF3108072B6034A1368002BFCD0BFF30A
:100BE0005F8F70472C0100D0BFF35F8F0022024B54
:100BF0001A6080F3108870472C0100D070B5EFF3B5
:100C0000108C72B60D4D2B68002BFCD0BFF35F8F9C
:100C10000724CB08C618C05C01230C40A3401C006D
:100C20000440034207D118433070BFF35F8F2C603C
:100C30008CF3108870BD1000FFF7B2FF2C0100D0BC
:100C4000F8B54746CE46884680B5EFF3108C72B6AD
:100C5000214D2C68002CFCD0BFF35F8F9A422CD81A
:100C6000D4080727055D061901241740BC402C4213
:100C70001FD007210127894609E0D408055D061920
:100C80004C4639001440A1400C00294211D00132D9
:100C90009342F2D201204042BFF35F8F00220E4BFD
:100CA0001A608CF3108800280FDBC0BCB946B04630
:100CB000F8BD254310003570EEE7BFF35F8F0023CA
:100CC0002B608CF31088012040424346002BECD06F
:100CD0000898FFF765FFC0462C0100D0044A107841
:100CE000431CDBB2172B00D9102313707047C0468A
:100CF000500300200021044B044ABFF35F8F02C35E
:100D00009342FAD17047C046000100D0800100D064
:100D1000054B064A1360064A136053609360D36024
:100D200013615361936170478080808000E400E02C
:100D300004E400E01F2318401E3B8340002905D037
:100D4000C021044A49005350136070478022014972
:100D50008B50FAE700E100E070B50D00EFF310866C
:100D600072B60F4A1368002BFCD0BFF35F8F0D4B98
:100D700010309B6884001B590B4A934203D09D425C
:100D800001D001F095F9074B9B681D51BFF35F8FB0
:100D9000BFF35F8F0022024B1A6086F3108870BD8C
:100DA000240100D000ED00E0C1010010F0B5DE46E6
:100DB00057464E464546E0B50C0083B0EFF3108829
:100DC00072B6634A1368002BFCD0BFF35F8F614B90
:100DD00061499A68030010339F00D55900938D42F2
:100DE00043D0A54254D05D4EAA1B2F2A3DD85C4B60
:100DF0009C461B689A4601231A0099468240534636
:100E000013401F2201934B46024093409A46802292
:100E1000634650469850BFF35F8FEFF305839B46C0
:100E2000002B37D0009B5B4501D001F041F92A002F
:100E30004B469A439068844208D177E04B005B1898
:100E40009B00F3189868844236D01A000621515648
:100E50000029F3DA844255D0019B002B27D0C02211
:100E600051463F4B5200995019603A4B9B68DD51F7
:100E7000BFF35F8FBFF35F8F0022354B1A6088F39B
:100E8000108803B0F0BCBB46B246A946A046F0BDF0
:100E90000D00EAE72A004B469A4390688442D5D178
:100EA00006201056130000280ADA0D0032E08023D5
:100EB00051462B4AD150D8E706201856002822DB8D
:100EC00042001118890074188946A1689960E17977
:100ED000D971062161569971002925DBA488F11A80
:100EE000640524154C440919E0240905490D240220
:100EF0002143998013181B4A9B001178F3189971AC
:100F00001070A9E713005946002914D1FF319171DF
:100F10001549918013490A789A71144A9B1B5B41C9
:100F20005A43120D0A7097E71149E2E7062010565E
:100F300013000028C4DA0F4A0F49D21A083A5002A7
:100F4000400D014399800D4952080A43DA8083E736
:100F5000240100D000ED00E0C10100105403002086
:100F600000E100E0CA11002001BDFFFFAAAA0000B5
:100F700001BD00008E03002000F0FFFF00F8FFFF1E
:100F800070B501240443EFF30581EFF3108C72B6C2
:100F9000214A1368002BFCD0BFF35F8F1F4B050065
:100FA0001F4AED1A6D416A43120D1E4D8900AE684D
:100FB00052B27658A6421CD00621595691421CD0F6
:100FC00012215956914222D01E215956914220D0C9
:100FD0002A2159560324914210D0134B19781A70C4
:100FE0008171BFF35F8F00220B4B1A608CF3108866
:100FF00070BDAB680D4C5C50EFE70024610009192F
:1010000089005B18FF21997109499980E5E701245E
:10101000F4E70224F2E7C046240100D05403002084
:10102000AAAA000000ED00E0CA110020C1010010D2
:1010300001BDFFFF024B9C4661448900016070477F
:101040004000003470B5114C114DAC420FD2FF2658
:101050002368002B0CD0FFF741FE01002000FFF7B2
:10106000E9FFA680BFF35F8F0834AC42F0D370BDB8
:10107000FFF734FE01002000FFF7DCFF2671BFF30D
:101080005F8F0834AC42E3D3F1E7C0463409002057
:101090003C0900200A4B1968EFF3108072B60A6809
:1010A000002AFCD0BFF35F8F1B68BFF35F8F002265
:1010B0001A6080F3108840BF002000217047C046AE
:1010C000BC110020F0B5DE4657464E464546E0B519
:1010D00083B0EFF3058203231340B54A99005258B9
:1010E0000091904601229A409346B24B1A60B24B4F
:1010F00001935B46B1484363434608229B5E994691
:10110000002B3ADA43469B881BB2002B00DB9DE0A4
:1011100043469B79002B00D0E1E0434608241C5F46
:10112000002C20DB43465A6963001B19DB00D318EF
:101130009D68DC686B1C00D103E1A04800998446DF
:101140006144826A0B69AE1A9B1A9E4213D35A46B7
:10115000036A1A420FD0994800F038FB8C4202DC37
:10116000C7D18542C5D940BF03B0F0BCBB46B2462B
:10117000A946A046F0BD0D61EDE7424652695B000D
:1011800092464B44DB009A4453469E68DF6800F069
:101190001DFB8F42B6DC00D1F8E0002F00DAD9E069
:1011A0005246534654691B69019A934200D1CCE0E0
:1011B000414652460820085E528800042100104330
:1011C000984704000D0023002B4300D1C2E0002DFE
:1011D00000DBDFE030003900001BA9415346986076
:1011E000D96000229A5E002A00DA8BE743465D69E7
:1011F00053009C18E4002C19A768E4688C4200DDB9
:1012000080E702D1874200D97CE746463281083622
:101210000DE08C4200D1C6E01E000023F25E002AE1
:101220000ADB53009C18E4002C19A768E4689B189B
:10123000DB00EB188C42ECDD53461A804B463380C2
:1012400043469B881BB2002B00DA61E743461A69CC
:10125000EFF3108172B61368002BFCD0BFF35F8FE1
:1012600043469E88012342465B42938036B213690F
:10127000BFF35F8F00221A6081F31088002E00DA1E
:1012800046E743465D69083342469C467700BF19EE
:10129000FF00EF19BB68604698460823D15E92466E
:1012A000FC68002907DA0EE0A24246D018000023AD
:1012B000C15E002906DB4B005B18DB00EB18DA6827
:1012C000A242F1DD524606800023FE5E3980002EE8
:1012D000DCDA904643469B79002B00D11DE70023C2
:1012E00042469371434646460821595E08364B1CD8
:1012F00000D138E747468946556902E006004B1C95
:1013000018D04B005B18DB00E8180A008C46E95E39
:1013100043881BB2002BF1DA01235B42DC178360A8
:10132000C4604A4503D031803B8903803A81E1465D
:101330004B1CE6D1B8464C46F2E69A684245B5D910
:10134000C0E7631C00D0F8E605E720002369984752
:10135000002825D1534642461B8813811269EFF3BA
:10136000108372B611680029FCD0BFF35F8F42462C
:10137000514652880A804246494651801269BFF35D
:101380005F8F0021116083F31088BBE6864200D88E
:1013900003E7B7E6094800F019FA001969411DE7AB
:1013A000656824680FE7874200D835E744E7C04600
:1013B000A81100203C700540C510001000400540F9
:1013C00070B52E4C2569002D04D00A212C48FFF75A
:1013D00031FE70BD2B4E0321300000F0EDF9E660C8
:1013E000FFF77CFC284B03229C46D02322701B066F
:1013F0001B6801216370254B6044A3600F238000AC
:1014000020610220638063694942A1801980023112
:10141000198647311D83585218315A5275325C393A
:1014200099521832013199521832013199521832B9
:1014300001319952083518329D52023118329952B1
:101440001832013199521832013199521832013152
:1014500099521832013199521832013199520C4B7C
:101460000C49DC6001303562FFF776FC0121032076
:10147000FFF760FC084B1D60A7E7C0469C030020F7
:10148000BC1100200040054040000034FFFF100068
:10149000A8110020C51000103860054070B501008B
:1014A0000469EFF3108C72B620680028FCD0BFF3FB
:1014B0005F8F02200D5E4C6968004019C00024183F
:1014C000002D37DB208848800869BFF35F8F002636
:1014D00006608CF31088E360638804980133206110
:1014E0005B0405985B0CA26060611A1C002B1FD086
:1014F00093B22804628018430A69EFF3108C72B625
:101500001368002BFCD0BFF35F8F8B8823808D8006
:101510000B69BFF35F8F00221A608CF310880B7881
:1015200001329A40CB6808498C4663441A6070BD0A
:101530000122DDE70B69BFF35F8F00221A608CF395
:10154000108801204042F2E73C20000010B543899A
:101550000A1493421ADD53009B184269DB00D3182A
:101560000469EFF3108C72B62268002AFCD0BFF336
:101570005F8F5A88090494B2090C8A4208D0036923
:10158000BFF35F8F00221A608CF31088002010BD1B
:101590008022120214435C80012302698371BFF32D
:1015A0005F8F002111608CF31088044902788C460B
:1015B0009340C268012062441360E8E73C200000C9
:1015C000F0B504000D0006267642F717C646361918
:1015D0006F4100B582B08F4214D811D000F0FEF8F0
:1015E00032003B00121A8B41002B17DC002B47D036
:1015F0002000290000F030F902B080BCB846F0BDF0
:101600008642EBD90022002316001F0000F0E6F806
:1016100032003B00121A8B41002BE7DD00F0DEF8B0
:1016200032003B00121A8B41002B0ADB002301938E
:10163000154B3200009315483B00FFF72FFF0028A1
:10164000D6DB00239C46B046114A124E736A9F4275
:1016500004D8B16A8845CBD99F42C9D11168EFF34C
:10166000108072B60B68002BFCD0BFF35F8F13683D
:10167000BFF35F8F6146196080F3108820BFE5E7F4
:10168000002AB5D0CAE7C046951000109C03002080
:10169000BC1100200040054070B504000D0000F0B2
:1016A0009DF88023001969411B06994202D301204D
:1016B00002494042FFF784FF70BDC046FFFFFF7F35
:1016C000F0B5D6464F464646C0B504000D0082B080
:1016D000EFF305878946002F0ED0344900204B6A6E
:1016E000AB4203D38A6A0130A24226D302B0E0BCE7
:1016F000BA46B146A846F0BD2D4B9846DB689A46DF
:10170000434650461E7800F061F80B005146020037
:101710000436B600715820008E1A2900801A9941AB
:101720008F4211DC0ED020BF204A0020536A4B4567
:10173000DCD3926A0130A242D8D25B1B5A1E93417D
:10174000D8B2D3E78642EED900F048F822002B0049
:10175000121A8B41002B1ADB00230193154B220038
:10176000009340462B00FFF799FE011E0FDD0F4B43
:101770005A6A4A4517D39B6AA34212D34046FFF7E1
:10178000E5FE0A4A0020536A4B45AFD3D1E7074A2A
:101790000020536A4B45A9D3926A0120A242A5D2E8
:1017A000CBE74A45EAD120BFE8E7C0460040054004
:1017B0009C0300209510001010B5024A0248FFF764
:1017C0001DFA10BD00620010641100200300416A80
:1017D0000A00986A596A8A42FAD17047034B596ADB
:1017E0000A00986A596A9142FAD170470040054050
:1017F00070B504000D00174A536A1900966A536ABF
:101800008B42FAD13000190024184D41AB4216D852
:1018100013D0104A2B00526A954203D90D494A6AE7
:101820009A42FCD39A4207D10A4A02E0516A99428D
:1018300002D1916AA142F9D370BDA642E9D9054B04
:101840005B6A1C005A1CEFD0012301246442E51797
:101850005B42E3E700400540064A536A9942FCD8E0
:1018600007D1044B02E05A6A914202D19A6A82423D
:10187000F9D3704700400540F8B5040006200D007C
:1018800000F078F9002844D0374B3849E3185A1E45
:1018900093418022120494465B429B0D344A9B057F
:1018A00063441360334A136018000A689043FBD105
:1018B0002D4B314AE31859424B4180215B004900CE
:1018C0000620995200F056F92900C00000F042FDB0
:1018D0000130C3091ED1402701226262A362266B38
:1018E000F30722D4E36A254B0620E51800232B607A
:1018F000266300F03FF93900800000F02BFD7023D3
:10190000E26A5A400E3313402B601D4B23630323BE
:10191000A364F8BD1B4A93421ED900231A4A1B4FE9
:101920006262A362266BF307DCD5194B144AE318F5
:101930001A60656AA36A0620AD01ED1800F01AF975
:10194000144900F007FDAD020100280000F002FD7F
:101950000021FFF74DFFC5E74006800E9F011A00EA
:101960003F180300B9E7C0460080FCBF08C0004034
:1019700000E0004000F00040C01100202C100000EA
:1019800001030000FEFF0000FFFF0000C0FF3F005A
:10199000303000004E0E0000F8B5DE464E46574689
:1019A0004546E0B58B4605000A991800160000F080
:1019B000D1FC0A9B6C001F02324B64199C46A400A8
:1019C0006444636881469F4200D967602B1FDBB285
:1019D0009846012B30D9C02380229B01E3181201C5
:1019E0001A60294BAD0059599A4600291BD1730141
:1019F000E026226853401E40802342465B01E318E4
:101A00001E60012A30D9802380229B01E318120135
:101A10001A6053464A4667605A51F0BCBB46B2460C
:101A2000A946A046F8BD586900F094FC0130430077
:101A30001B18033BFDD2DAE75B46012BCBD1C02359
:101A400003229B01E3181A60023AA3681A42FCD0F1
:101A50007301E0262268AD0053401E4080230A4AED
:101A60005B019246E3181E605A46216851400322EA
:101A70000A401A6001225B469A40A3681A42FCD0D1
:101A8000C1E7C046008000406C110020F0B546461A
:101A90004F46D646C0B51F00344B44009C46241820
:101AA000A4006444636888461600FF2B02D8802394
:101AB0005B006360031FDBB29A46012B30D9C02361
:101AC00080229B01E31812011A60294B85005959A5
:101AD000994600291BD17301E026226853401E401D
:101AE000802352465B01E3181E60012A30D980230F
:101AF00080229B01E31812011A6080235B0063605F
:101B00004B465F51E0BCBA46B146A846F0BD5869A5
:101B100000F020FC013043001B18033BFDD2DAE744
:101B20004346012BCBD1C02303229B01E3181A604B
:101B3000023AA3681A42FCD07301E02622688500AD
:101B400053401E4080230A4A5B019146E3181E6001
:101B500042462168514003220A401A60012342464E
:101B60009340A2681342FCD0C1E7C0460080004009
:101B70006C110020014B8000C05870476C11002090
:101B8000F0B54746CE4680B55B4B15005A68070056
:101B9000884683B0FF2A02D8802252005A6003226E
:101BA000564B554E1A600123B4682342FCD02022C4
:101BB00031685140C0320A4051490A6032684E4E85
:101BC0005A40032313400B600223B4682342FCD025
:101BD00080224C4B12011A6080235B0073604A4CD8
:101BE00099464A4B3A0063610121434648480095B3
:101BF00000F0BCF941463800694300F0ABFB454BAF
:101C000005005A68FF2A01D84A465A608022424B92
:101C100012011A602169002907D0606900F09AFB5F
:101C2000013043001B18033BFDD2E022394B3B48F7
:101C300019680A40026002221968514001320A40C4
:101C4000042102609A681142FCD08021344A0901C3
:101C50001160802252005A60324B2361264B596832
:101C6000FF2900D85A6003220121244B1A60224A1E
:101C700093681942FCD0E0231068034020480360B9
:101C8000126803234A40022113401B4A03609368F1
:101C90001942FCD080211B4B090119608021224B85
:101CA0004900516065615A68FF2A00D85960802256
:101CB0001E4B12011A60A169002907D0606900F06B
:101CC00049FB013043001B18033BFDD2402316495A
:101CD0000A685A40A0331340154A13608022154BFE
:101CE00012011A6080235B004B60084BA36103B0B4
:101CF000C0BCB946B046F0BD3C8000403CB000409E
:101D00003C9000403CA000406C110020006CDC02C4
:101D1000008002403080004030B0004030900040F1
:101D200030A00040001BB7004880004048B0004091
:101D30004890004048A00040F0B54E464546DE467B
:101D40005746E0B51E00844B05009846A0235B0073
:101D50009B46824BD9469A4643468B4685B00093B4
:101D600002920396009B53450DD901235B429C468A
:101D70007B4AE1449446009B634400934B460F2BFF
:101D8000F0D100208FE01F00764B31219C46674444
:101D9000380000F0DFFA07263124854264D0741E33
:101DA000B0462E00250044466C433800210000F068
:101DB000D1FA86424CD06B1E0193012D00D1B2E0C6
:101DC0004346E41A2100380000F0C4FA864259D094
:101DD000AB1E0193022D00D1B1E04346E41A21006D
:101DE000380000F0B7FA864264D0EB1E0193032D51
:101DF00066D04346E41A2100380000F0ABFA864270
:101E000069D02B1F0193042D6BD04346E41A2100A7
:101E1000380000F09FFA86426BD0052D6DD0380057
:101E2000E11F00F097FA864200D171E006232421D9
:101E300038009846242400F08DFA864212D00525F9
:101E400044466C433800210000F084FA8642B2D147
:101E50000029B0D15B462C00CB4647469946029AF2
:101E6000039E18E0350046462100380000F072FA63
:101E7000002994D137005B463C00CB46029A994634
:101E8000039E08E00029A3D15B464746CB4699460E
:101E9000029A039E019C5B463349012059434B46FD
:101EA00019601760346005B0F0BCBB46B246A94665
:101EB000A046F0BD0029E7D0EB1E0193032D98D179
:101EC0000323092138009846092400F043FA86428A
:101ED000C8D0022567E70029D6D02B1F0193042D17
:101EE00093D10423102498463B099E42BAD003257F
:101EF00059E70029C8D0052D91D11921380019249E
:101F000000F028FAB04223D00523042598464AE77A
:101F1000002900D08AE75B464746CB460124994614
:101F2000029A039EB7E73500B74200D01DE75B4633
:101F30000127CB4601249946029A039EABE7022370
:101F400004249846BB089E4200D18BE701252AE76E
:101F50003500052688E7C04650262F0050F80C00B3
:101F600020D1FFFFB0710B00001BB700F8B50400D3
:101F700021481E0017000D0000F0ECF901003800A8
:101F800000F0E8F9069B36041B031E432368002B70
:101F900020DB1A4B1A49E3185A1E93418022920102
:101FA00094465B421B0B174A1B0363441360164A9B
:101FB00013601F000A689743FBD1144B2560E21899
:101FC0002123A06013602368002BFCDA0823E6605D
:101FD0001360F8BD3F2322681340AB42D9D1A368F8
:101FE0001B051B0D8342D4D1EE22E368D2021340BD
:101FF000B342CED1EDE7C046001BB7000040FDBFA5
:1020000008C0004000E0004000F000400430000044
:102010008023024A9B000B43D36270470080054037
:10202000142310B50100188804331B88984710BD8D
:10203000162310B50100188802331B88984710BD7D
:10204000F8B54746CE4680B50F1E19D014239946E1
:10205000043304000025012698464B461888434661
:1020600021681B88984701C4431E984101354042AE
:102070000640AF42F1D13000C0BCB946B046F8BD11
:102080000126F8E7AA23064A1B0113608D235B0093
:10209000D3600449044B19605368002BFCDA704785
:1020A0000040024000B0FA00006002407047C046A5
:1020B00010B50148FEF774FD2462001070B5074D9D
:1020C000074EB54209D20024013E761BB60808CD62
:1020D000984723000134B342F9D170BDD06000109D
:1020E0000C610010054B064A06491A60064A074B68
:1020F0001A6010000B689843FBD1704700E0004065
:10210000BFCDFBFE08C00040FE7F3C0000F0004059
:10211000044BDB6C002B03D18022034BD2021A60EC
:102120007047C046000011504C201150044A054B26
:102130001A60054A1368DB018033FBD17047C04643
:10214000FFFFFF0100F0004008C000404022034BA9
:102150009A675A671A67DA667047C04600F001400E
:1021600010B5FEF7C7FD10BDF8B52749274C284D1F
:10217000641AA6103200302E00D9302228009200B6
:1021800000F0E4FFBC2C3BD830202F232C1964072F
:10219000204A801BE40F9B1B052B16D93700002C0F
:1021A00002D0B300771CEA50001B33199B00410892
:1021B000EB18C900C9181A605A6008339942FAD15D
:1021C000012303421CD09843C619B300EA50731C84
:1021D0002F2E15D09B00EA50B31C2E2E10D09B0042
:1021E000EA50F31C2D2E0BD09B00EA50331D2C2EF1
:1021F00006D09B00EA50731D2B2E01D09B00EA50A5
:10220000054B9D60F8BDC04600010010C0010010E4
:1022100000000020C101001000ED00E0002310B517
:10222000294C82B0A367FFF72DFF0122274B1A60CC
:10223000636C012BFCD10322254B1A60224A936B5D
:10224000012BFCD1013300930121224A224804339F
:10225000FFF78CFE052301210093204A2048FFF759
:1022600085FE0022022104201E4BFFF70FFC0022F6
:10227000012105201C4BFFF709FC0022002107204B
:102280001A4BFFF703FC002200210820174BFFF731
:10229000FDFB8023DB000093002200210920134B6B
:1022A000FFF77AFB0022104B00210620FFF7EEFB20
:1022B0000420FFF75FFC0E4900F04CF801000020FD
:1022C000FFF7A6FE02B010BD008000403CB0004009
:1022D00030B00040002F685900800240008C8647D3
:1022E00000C00240001BB70040597307006CDC02BD
:1022F00040420F0001480421014B1847C003002051
:1023000041200010124A936F9B0815D29066D16647
:10231000002905D0FFE7FFE7FFE7516F106F704717
:1023200004B580210906C2175140002800D0C843D7
:1023300003F0B6FE002104BDF0B5146E556E576F64
:10234000166FFFF7E3FF1466556657671667F0BD13
:10235000000000D0114A936F9B0813D2106651669B
:10236000002905D0FFE7FFE7FFE7516F106F7047C7
:1023700004B5002801D00020C04303F091FE0021E5
:1023800004BDC046F0B5146E556E576F166FFFF75B
:10239000E5FF1466556657671667F0BD000000D06C
:1023A00094464A4A926F9208624601D228E0C0469B
:1023B000F0B5464E346E756E776F366F00F020F8CC
:1023C0009446424A14665566576716676246F0BDE2
:1023D00094463E4A926F9208624601D254E0C0464B
:1023E000F0B53A4E346E756E776F366F00F04CF87C
:1023F0009446364A14665566576716676246F0BDBE
:10240000002B24DB11D000293EDA00B5C94340423D
:1024100000D1013100F038F8C943404200D1013108
:10242000DB43524200D1013300BD002AEBD100282A
:1024300001D1002905D00020C90FC90701D1C0432F
:10244000410800B503F01CFE0022002300BD00B5CA
:1024500000290ADBDB43524200D1013300F014F8BB
:10246000C943404200D1013100BDC943404200D1BF
:102470000131DB43524200D1013300F005F8DB4368
:10248000524200D1013300BD002923D1002B18D1C5
:10249000002A0CD0BC460D4F38667A660021002316
:1024A000FFE7FFE7FFE77A6F386F6746704700285E
:1024B00001D00748010000B503F0E2FD002200232F
:1024C00000BD02000B00002000217047000000D07A
:1024D000FFFFFFFF002B00D0BFE0130C28D1002A24
:1024E000E7D080B4114F39667A66FFE7FFE730B472
:1024F000040C7B6F396F1B0423433B667A66FFE74E
:10250000FFE7FFE7C04684B27B6F3D6F1B042343A8
:102510003B667A66FFE7FFE7C04600232C042D0CDC
:102520007A6F386F00196941B0BC7047000000D065
:10253000F0B594460025140E01D112020835140F8F
:1025400001D112010435940F01D192000235D40F4C
:1025500001D152000135D40B0134254F7C66254C46
:102560003C660E0C93B2FFE7FFE7FFE73C6F664364
:10257000360C7703BE467343DF0B5B04C01AB941C8
:10258000130C7343DB18C91ACE086643360CB644E5
:1025900093B273431F0F1B01C01AB941130C73434D
:1025A0001F0B1B05C01AB941860D8F023E436643BF
:1025B000360C092D24DB520A7243801A7703460A2F
:1025C0006643360C16235B1BDE40DF40BF196446B2
:1025D0006643821B7046043506330100D940A8408B
:1025E000C01900D30131A24206D20023F0BD000081
:1025F000000000D0FFFFFFFF121B0130F3D3F1E713
:1026000009277F1BFE406446A2B27243801A00D2A3
:102610000139220C7243130C1204821A99410B00E7
:102620007046043513370100F940A840801900D3E3
:102630000131002B02D1A2420AD2F0BD013000D3F9
:102640000131121BFAD2013BF8D1A24200D2F0BDF7
:10265000013000D30131121BF7E7F0B51C0C00D09C
:1026600080E00CB400251C0A04D11B02160E334373
:10267000120208351C0B04D11B01160F3343120143
:1026800004359C0B04D19B00960F33439200023516
:10269000DC0B02D192185B4101351C009718644194
:1026A0000134464F7C66464C3C660E0CFFE7FFE764
:1026B000FFE7C0463C6F6643360C7703BE4697B2D1
:1026C0007743C01B00D20139C01B00D201399FB231
:1026D0007743C91BC91B170C77437E04FF0B801B74
:1026E000B941CE086643360C0C2D33DBB644120BD1
:1026F0001F053A431B0B97B27743C01B00D2013929
:102700009FB27743C91B170C77433E043F0C801BD5
:10271000B941860D8F023E43664329277F1BFE4049
:102720000C3D7746AF40BF1930BCA2B2ABB272438A
:102730007343801A9941220C7243130C1204801ABD
:10274000994102000B000137001BA941F9D2781E04
:102750000021F0BD0C277F1BFE4077467F0BAF406A
:10276000FF19E0E700245D1C07D0144F7D66396631
:10277000FFE7FFE7FFE7FFE73C6F95B29EB26543D7
:102780006643401BB141150C1E0C6543664336047D
:102790002F0C3E432D04401BB141994204D202004C
:1027A0000B0020000021F0BD01D19042F7D3801A28
:1027B000994101349942F2D3F6E70000000000D0BD
:1027C000FFFFFFFF48404140484018B41B4B5B6887
:1027D000FC46019308BD04DF5F2A001018B4174BB4
:1027E0001B68FC46019308BD00DF692A001094466F
:1027F000134A926F920809D2624618B40F4BDB68F5
:10280000FC46019308BD0CDF212D00100C4AF0B5E9
:10281000146E556E576F166F6246FFF7EEFF084A4B
:102820001466556657671667F0BD18B4034B9B686E
:10283000FC46019308BD08DFC52B0010000B0020EB
:10284000000000D0FFB550404240504059404B403E
:10285000594000E0FFB5154F4C00640D03D0BC4259
:1028600004D10C0314D80020090D09055C00640D87
:1028700003D0BC4204D11C030AD800221B0D1B0547
:1028800001264B4009D44B4003D58B4200D18242F4
:10289000FFBD9942FCD19042FFBD0B43DB180343BF
:1028A0001343F5D0C9434918FFBD0000FF070000DE
:1028B00000B5FFF7CFFF804100BDC04600B5FFF770
:1028C000C1FF01D9002000BD012000BD00B5FFF708
:1028D000B9FF804100BD012040054A00121804D80C
:1028E0005A00121801D800207047012070470000DC
:1028F0000021002805D17047C1174840401AFAD07E
:10290000C90713B5064B1B6898470CBC441CA24072
:102910001005120B0349091B09051943114310BD8A
:10292000B81100201F04000010B54C00620D802378
:10293000D218DB00D21A5B057E2A10DD9E3A13DA2C
:10294000CC170903490819435242D14064000134AD
:102950001532202A05DAD0400843604310BD00201C
:1029600010BD0846604310BDC80FC018013810BD27
:1029700018B4044B5B6AFC46019308BD24DFD12EDA
:1029800000100000000B0020132370B51D78012DEE
:1029900019D014DD1F48FFF74BFB06001E48FFF758
:1029A00047FB1E4C80223100200000F0CFFB022D9F
:1029B0002DD01B48FFF734FB1A4B186070BD1A4B23
:1029C000164CA364F5E7184B144C23606360A360B6
:1029D000E36023616361A361E36123626362A362D5
:1029E000E36223636363A363E36323646364A364B5
:1029F000E36423656365A365E36523666366A36695
:102A0000E36623676367A367E367A364D1E7064BC5
:102A1000A364CEE75344000053460000000B00209F
:102A20004C330000B81100202D2A001007B5604675
:102A300001880A0A0230DF2AFAD1C9B2820804D317
:102A4000028840880004104300E00068014A5050AA
:102A5000039007BD000B00200FB403BC0CBCF0B505
:102A60000124E407634000E0F0B50C0DCF0F661EB3
:102A70003605891B640503D3C943404200D30131A5
:102A8000640D03D0661CF60A07D0E41B00207F000B
:102A9000791C89078912803C24031D0DDF0F6E1EEF
:102AA00036059B1B6D0503D3DB43524200D3013334
:102AB0006D0D03D06E1CF60A07D0ED1B00227F00BF
:102AC0007B1C9B079B12803D2D032F1B661B58D43C
:102AD000A446202E46DA20371400BC401D00BD401D
:102AE000F24033412A4380185941CB0F05D0C943E6
:102AF000C043002264425041514162464D0D28D1ED
:102B00000D0D07D100281FD0241940414941013A39
:102B10000D0DF9D0640006D3013000D30131002C33
:102B200001D140084000013A0BD4941CE40A04D1BE
:102B300012051144DB071944F0BDD907204B194396
:102B400000E0D9070020F0BD0029DDD1002CDBD149
:102B5000F0BD0132C6074008CD0728434908002EC2
:102B6000E1D0D9E73C2E29DA203E40371400BC40A2
:102B700000D00124F24014431A00BB401C43D31779
:102B8000ACE7AC46202F08DA20360400B4400D0034
:102B9000B540F84039412843A5E73C2F0CDA203FE7
:102BA00040360400B44000D00124F840044308003B
:102BB000B1400C43C117EAE710001900002494E764
:102BC0000000F07FF0B50C0D661E3605891BE60A85
:102BD0006405640D02D0651CED0A04D000200121BB
:102BE0000905803C2403A4461C0D671E3F05DB1B22
:102BF000E70A6405640D02D0651CED0A04D00022CA
:102C000001231B05803C24037740644497B484B2BD
:102C100096B27443070C7E43150C6F4380B2684331
:102C2000361802D3012000043F183004350C001977
:102C30007D41844688B29AB250430C0C62431F0C0B
:102C40007C438EB27E43921902D301263604A41926
:102C50001604170C3618674101BC81B29AB2514371
:102C6000040C62431B0C5C4380B25843121802D31D
:102C70000120000424181004130C401863412D187F
:102C80005E410020474106BC88B293B258430C0C09
:102C90006343120C544389B251435B1802D30121A0
:102CA0000904641819041A0C091862416D18564178
:102CB0000020474118BCF902720D1143F0026A0D61
:102CC0001043ED020A0D03D16D1940414941013B0A
:102CD000124E9B1B7600B3420ED26D0007D301301B
:102CE000002671416646354301D1400840001B056E
:102CF000C918E4072144F0BD0BDA013306D10130D5
:102D000004D101314F0D01D04908F2E7E10700205D
:102D1000F0BD013631050020EBE70000FF030000A5
:102D2000F0B51C0D671E3F05DB1BE70A6405640D4B
:102D300002D0661CF60A04D0002201231B05803C49
:102D40002403D0252D060026F6432E661E096E6646
:102D5000CE0FF619B44649004F0D02D07E1CF60A7C
:102D600003D000200021403F3F033E1BB600B44487
:102D7000013F7F05C91B49082E6F013676089C026A
:102D8000950D25437543ED137543AD1301356D1056
:102D9000F603761B0CB4CC02450D2C43A2B2B3B2A1
:102DA0005A43270C7B43350C6F43A4B26C431B1969
:102DB00002D3012424043F191C041D0CA4187D41D6
:102DC00024196D41009A91B2ACB26143170C7C4357
:102DD0002B0C5F4392B25A43A41802D3012212046F
:102DE000BF182204230C52187B41019C6C431B1911
:102DF000520ED9010A434401A01A81B2B2B2514322
:102E000003145A43360C734387B27743D617D2194B
:102E100000277E4136049B191704160C7F185E416B
:102E20007316ED18F301002680337541A90F06D102
:102E30006400690AE8055B0A184309D22FE00422FE
:102E4000944480337541A90AA8059B0A184326D3E8
:102E5000404149412404009A019B0D005543641BE5
:102E60004343E41A95B286B27543170C7E43030CB4
:102E70005F4392B25A43B61802D301221204BF181C
:102E80003204330C52197B4152429C41002C02D433
:102E90000022013051414008CA071043490802B0DE
:102EA0006246D7079210084BD218084B9A4203D2B9
:102EB00012058918C919F0BD0020002A01DC39006B
:102EC000F0BD01331905F5E7FD030000FE07000022
:102ED000002200B5203200F004F8080000BD000018
:102EE00000220B150AD410B5944600F031F81414E2
:102EF000013400DA0021CB17144C204700200021B8
:102F000070476244343A0CD40C2A07DA040091402A
:102F1000904052422032D440214310BDD843D9437F
:102F200010BD203207D40C46944052422032114149
:102F3000D040204310BD0800C917203203D45242AC
:102F40002032104110BD1800190010BD032F0010D1
:102F50000A0DCC0F531E1B05C91A520503D3C943D2
:102F6000404200D30131520D03D0531CDB0A07D07D
:102F7000121B00206400611C89078912803A120329
:102F8000014BD21A70470000FF0300004840414047
:102F900048400E4B5B6818470C4B1B6818470C4A9F
:102FA000936F9B0802D2094BDB681847F0B5146E8B
:102FB000556E576F166FFFF7F6FF054A1466556694
:102FC00057671667F0BD014B9B681847000C00203F
:102FD000000000D0491A002808D1084670470000B8
:102FE000C10FC90700D54042002817D0F44603B4EA
:102FF0000B4B1B68984706BC81409E38404280318D
:1030000007D20B0607D04900490AC0051043084300
:1030100060470130F8E7490A8902F5E77047000088
:10302000B8110020014B5B6A18470000000C00201B
:10303000034BDB6FFC4618477CDFD53000100000E7
:10304000000C0020132310B512481C78FEF7F0FF87
:103050000100012C0AD003DD80220F4800F076F831
:103060000E48FEF7DDFF0E4B186010BD0A4C5422CF
:10307000200000F06BF80B4B6365A365E3652366E6
:103080006366A366E36623676367A367E3672362F8
:10309000E361E5E753460000000C00204C330000DC
:1030A000B8110020A930001007B5604601880A0A4F
:1030B0000230DF2AFAD1C9B2820804D302884088DC
:1030C0000004104300E00068014A5050039007BD1F
:1030D000000C0020C30FDB0741000A0E07D0FF2AB7
:1030E00008D00909054A8918194340077047190093
:1030F000002070470249C918FAE7000000000038B4
:103100000000F07F10B5040002F05AFE002804D041
:10311000034B04199C4200D810BD0248FDF740FD46
:10312000000004203062001010B502F053FE10BD04
:1031300001480421014B1847D00300204120001012
:10314000014B1B6818470000D0030020014B5B684F
:1031500018470000D003002010B5FFF7D3FF10BDC3
:1031600010B5FFF7CFFF10BD10B5FFF7DDFF10BDA5
:103170007047C046F8B55746DE464E464546E0B570
:1031800099460A9B07009A460D9B884693460B9CDE
:103190009B073BD10C9B9C423DD21E1B0B94150000
:1031A0000C005E442A004B46013521002020B84720
:1031B000B542F7D1A0460B9C002C20D045463619CD
:1031C0005346321B013C185D29004B46B847002C82
:1031D000F6D12B00350098460D9B9B070FD55B461B
:1031E000EC1A0C9BA3420AD9464698462A004B4645
:1031F000310020200134B84701354445F6D328007A
:10320000F0BCBB46B246A946A046F8BD1600150064
:10321000002CD3D1E0E71600002CCFD11500EEE74B
:10322000F0B54F464646D646C0B584B098460EAB7C
:103230001B7894469946129B0D9C109F119E9A07ED
:1032400025D4002E65D1BC4221D201221A409246DB
:10325000202C00D1E9E00C9A551E302202E0202CEF
:1032600000D17BE001342A55A742F8D85246002A03
:103270000DD0B4420BD20C9A551E3022202C02D114
:1032800071E0202C2DD001342A55B442F9D1DA0650
:103290003CD55A052ED4002C28D10F9A102A00D1E3
:1032A000B6E0022A00D1BCE030220C9C227001243E
:1032B0004A46002A65D15A0700D499E02B220C9D7A
:1032C0002A55013403930C9B6246009302964346B1
:1032D0000194FFF74FFF04B0E0BCBA46B146A846E0
:1032E000F0BD2024DA06EDD55A0503D4A74266D0F6
:1032F000B44264D00F9A102A71D0022A57D0202CE1
:10330000E0D02200013430250C9FBD54202CD9D0B0
:10331000CEE7012215001D40AA461A4236D04A4681
:10332000002A4AD10C321A4247D1BC42A1D2202CE9
:1033300091D1202E17D82024DA06C3D55A051BD4E4
:10334000202F01D0202ED5D11F220F9D102D6FD000
:10335000022DD8D162250C9FBD54D0E75246002AD9
:1033600079D0202EBDD92024DA06ABD55A0503D456
:10337000202FE9D0202EE7D00F9A102AA2D12024A6
:10338000A0E72D220C9D2A5501349BE7BC4200D3B7
:103390007DE7202C00D05EE7DA06F0D55A05EED4A2
:1033A000202F62D0202EEAD134001F22CDE7202C1E
:1033B00000D187E722000134CCE7013EB5E7621E69
:1033C000012CC2D10F9A102A00D06AE79A063BD589
:1033D00058220C9C2270283A6270022468E79A06F0
:1033E0000ED4202CCBD078220C9D2A55013486E7B0
:1033F0001A0700D466E720220C9D2A55013461E7A4
:10340000202CBCD058250C9A12191570013476E77F
:103410009A0608D558220C9C227030226270022431
:1034200046E76032F7E77822F5E7002A83D1B3E771
:10343000A21E013C9D0603D478250C9FBD5460E775
:1034400058250C9FBD545CE778220C9C2270483AAA
:10345000627002242CE7DA0600D433E75A058BD4D5
:10346000202F00D044E71F226FE73C001F226CE7AB
:1034700010B5002800D110BD01F080FBFBE7C0466D
:103480000B0010B5002802D049681B68984710BD92
:10349000F0B557464E464546DE46E0B599B0824601
:1034A000894690460893229A239B10001900FFF743
:1034B00012FA002800D0CDE0229823990122D94B9E
:1034C0005242FFF703FA002800D0C3E02298239964
:1034D0000122D54B5242FFF7EBF9002800D0B9E0AA
:1034E0002298239900220023FFF7E2F9002800D058
:1034F000F1E1229E239F8023269ADB001A400D9241
:10350000269A1A4201D1062324938023269A1B016E
:103510001A403B0093460996334300D0B3E0002A9B
:1035200000D0C2E1002300240A930B940023042559
:103530000993259B0024AB4200D95C1B0223269AE9
:103540001A400C92269A134203D06B426B415B42A5
:103550001C40099B002B07D00A9A0B9B30003900B6
:10356000FFF745F906000F00229823990022002357
:10357000FFF79EF9002803D0802109067B181F0061
:10358000269AAA4B009601971340089E0493249B09
:1035900003940293424633004946504600F0AAF98C
:1035A0000400002D67D02020269A494602401300CF
:1035B0005A4253415B42621C18400A923300220077
:1035C0004530D047099A6F1ED317D4185C40D30FEB
:1035D0009B46002501E0202D13D008AA94461F2306
:1035E000200063440A2101355E19FEF7B3FE303135
:1035F000317020000A21FEF7ADFE26000400092EDE
:10360000E9D805230693002304930A3303935B460A
:10361000089E029310AB0A9A009349463300504625
:1036200005970195FFF7FCFD0C9A0400002A22D0B3
:103630004246851A259AAA421DD9B0465746160019
:1036400022004346494620200135B8470134AE42A6
:10365000F6D810E0269B42460493259B49460393E7
:10366000249B50460293229B239C00930194089B29
:1036700000F040F90400200019B0F0BCBB46B2468F
:10368000A946A046F0BD6A4B78009C46400D6044B8
:10369000FFF732F9674A684BFFF7C7F8674A684B8C
:1036A000FFF79CF8674A3B031B0B1A4304000D000D
:1036B00009981100644B0022FFF787F8634A644BB6
:1036C000FFF7B3F802000B0020002900FFF786F88F
:1036D000FFF72AF90990FFF70FF95E4A5E4B0400E5
:1036E0000D00FFF7A2F800225C4BFFF777F8FFF719
:1036F0001BF95B4A5B4B29000C902000FFF795F803
:1037000004000C980D00FFF7F7F8574A574BFFF7E6
:103710008CF802000B0020002900FFF756F8040087
:103720000D0002000B000A940B95FFF77EF80400D1
:103730000D000A980B9902000B00FFF74FF80022CA
:103740000E900F914A4B20002900FFF750F80022FD
:10375000484BFFF743F802000B0020002900FFF759
:1037600046F80022444BFFF739F802000B00200016
:103770002900FFF73CF80A9A0B9B0D0080210400FA
:10378000C9050020FFF721F802000B0020002900E6
:10379000FFF724F802000B000E980F99FFF727F8A7
:1037A0000022284BFFF71AF8344B0C9C9C466444CB
:1037B00023050022FFF739F804000D0002000B007A
:1037C000300039000A940B95FFF772F800285DD19C
:1037D00023002A00C625099963318D42AD4159461F
:1037E0006D420435002900D1A3E6134363D03000B5
:1037F0003900234A234BFFF761F8002807D0002245
:1038000030003900204BFFF753F8002853D1249B98
:10381000002B00D18DE60D9B5A1E9341249AD31A9A
:10382000249386E6FFFFEF7FFFFFEFFFFFF7FFFF29
:1038300001FCFFFFFB799F501344D33FB3C8608B5B
:10384000288AC63F0000F03F0000F83F61436F63E5
:10385000A787D23F71A379094F930A400000E03F48
:103860001655B5BBB16B0240EF39FAFE422EE63F6A
:1038700000002C400000244000001840FF0300001E
:103880002D431CEBE2361A3F80842E41099B002217
:10389000013B09932000164B2900FEF7A8FF0A0000
:1038A000010003000A910B9294E7002300240A937D
:1038B0000B9400230993249A099B9A4214DDD31A8E
:1038C000013B24938023269ADB001A430023002522
:1038D000269209932DE6802212069446229B1E0012
:1038E000239B63441F0006E600232493EAE7C046B7
:1038F00000002440F0B54546DE464E465746E0B54A
:1039000095B08B46904699461E9A1F9B0A901900C7
:103910001000209DFEF7DFFF002800D0B0E11E98C8
:103920001F990122C74B5242FEF7C2FF002800D068
:1039300037E11E981F990122C34B5242FEF7C6FF82
:10394000002800D0A7E01E981F990022BF4BFEF769
:10395000BDFF002800D088E01E981F990022BC4BB4
:10396000FEF7A6FF002800D07FE01E981F990022D6
:103970000023FEF79DFF002800D0FAE000230B9300
:103980008023229C229ADB001C401A4200D102E1D3
:10399000092D00D87CE106A98C462C0017220023B3
:1039A0003021093C62440133D154EF1A202B00D15D
:1039B00032E1A342F7D10022A44B069207931E984E
:1039C0001F99FEF7B1FF0500FEF796FF02000B00FE
:1039D0001E981F99FEF7F9FE069A079BFEF725FF32
:1039E00008900991FEF7C4FF0600FEF781FF020070
:1039F0000B0008980999FEF7E8FE0022954B089005
:103A00000991FEF763FF002800D1D2E001363000B3
:103A1000FEF76EFF069A079BFEF750FF002801D0C5
:103A200000260135AA46002F00D098E02800FEF7B6
:103A300063FF02000B001E981F99FEF7C6FE854B20
:103A4000002206000F00FEF733FF0CAB9A46002859
:103A500045D10022300039007E4BFEF737FF0028A9
:103A60003DD1EB073BD5013539E0229B424604931B
:103A7000219B594603930A981E9B1F9C0295009315
:103A800001944B46FFF704FD15B0F0BCBB46B246AF
:103A9000A946A046F0BD229B5B0767D403226E4B6C
:103AA00022990192039121990291009342464B463B
:103AB00059460A98FFF75EFBE6E706AA94461723E5
:103AC000280063440A2101341E19FEF71BFC303123
:103AD000280031700A21FEF715FC051E76D0202C37
:103AE000EBD10323229A1340012B1DD1219B002BE4
:103AF0001AD00B9B002B00D0BBE0229A0C33134250
:103B000000D0B6E0219BA34200D887E006AB9C46DC
:103B100017223023624404E02199013413558C426A
:103B200059D0202CF8D12024229B01940393219B6F
:103B300002935346B9E706AA944617230A21634421
:103B4000300001341D19FEF705FC303129703000BA
:103B50000A21013FFEF7FEFB092E46D90600202C64
:103B6000E9D155460CAB20249A46B8E704223B4BDA
:103B700096E71E9A1F9B00200021FEF726FE0123D8
:103B80000B938023229C229ADB001E901F911C40E5
:103B90001A4200D0FCE60022314B0627069207931A
:103BA0000DE7229B0393219B0293042301932D4B4A
:103BB0007BE7002208980999264BFEF779FE00283A
:103BC00000D02FE7002E4FD101362BE70323229A96
:103BD0001340012B66D0202CA6D00B9B002B1FD0AE
:103BE0002D235246135501349EE75546202CB9D05B
:103BF00030233A19002F08D0172006A901340918DC
:103C00000B55202CAED09442F6D10CAB9A462E2305
:103C100052461355013462E72024CCE6202C83D091
:103C2000229B5B0708D4229B1B0700D47CE7202340
:103C300052461355013477E72B235246135501346E
:103C400072E7C046FFFFEFFFFFFFEF7F65CDCD417D
:103C500065CDCDC10000E03F8C6200108462001091
:103C600080842E4194620010F30700D4DAE6013616
:103C7000D8E6219B013B2193A34200D946E7AAE75E
:103C8000229B0393219B029303230193074B0CE791
:103C9000074BEA009B185C681B682F00069307948B
:103CA00000248CE6219B002B95D022E79062001027
:103CB00048660010F0B55746DE464E464546E0B52C
:103CC000A5B01F002E9B91460D93CA4ACA4B82464F
:103CD0008B461A60002900D129E2002338789846E3
:103CE000002800D12BE2C54B44460C93C44B5546EB
:103CF0004E460E930AE0631C984622003300594654
:103D0000A84744463878002800D187E001372528A5
:103D1000F1D108239A46043B9946023B9846013B61
:103D200000229C460B943878791C0300203BDBB2C0
:103D3000102B03D80C9C9B00E3589F460300303B9C
:103D40000B9C0B92092B3AD9002398462A2800D1C4
:103D5000DDE000239A462E284BD00300683BDBB2FF
:103D6000122B1ED80E9A9B00D3589F4663460F0015
:103D70001A43D8E743460F001A43D4E74B460F00D7
:103D80001A43D0E710230F001A43CCE753460F0025
:103D90001A43C8E780235B000B9A78781A430B928A
:103DA00001310F0067284FD82428A4D90300253BF0
:103DB000DBB2422B9FD893499B00CB589F460023F0
:103DC00098460B9B47469C4600E00131BB00DB193F
:103DD0005B001F180878303F0300303B092BF4D9F3
:103DE00063460B930023B8469A460F0001312E28F4
:103DF000B3D180200B9AC00002430B923022524272
:103E0000944678780B0084446246092A00D8AAE1D7
:103E10002A2800D1B9E10F0001319EE7A046AA4649
:103E2000B146C84503D301235B424B4498464B46F9
:103E3000424659460020D047200025B0F0BCBB4682
:103E4000B246A946A046F0BD01006939C9B20F29A2
:103E500000D950E701238B409C466B4B9946634643
:103E60004A4613400F9362464B461A4200D068E11F
:103E70000A2956D0072900D03DE70D9B02CB984672
:103E8000002900D092E10B9B10211A008A431000F8
:103E900011310843814680201A00C0000240110001
:103EA00003421CD114AB9C461F220F2362440D9584
:103EB0009C4615000F9B0B9402E0202B0CD01100A8
:103EC00064460C4020003730092C00D807380133F5
:103ED000E8540A090F29F0D80B9C0D9D0F934B460F
:103EE0000822069353460592083203920022049357
:103EF0000F9B029201931CAB2200009359463300A2
:103F00002800FFF78DF9434604000D93FAE60D9B58
:103F100004CB9046002A79DB78780D930F000131AD
:103F200017E70D9B02CB14930B789C461800534661
:103F3000002B00D134E1002815D05346013B01335A
:103F400099460D940B9C89444A460B00A14601E01A
:103F5000934203D05C780133002CF9D14A465B1AB6
:103F60000D9C0B920F938023DB0099460B9A134014
:103F70000D934B461A4204D00F9B534501D953462B
:103F80000F93022399460B9A13400B934B4613420F
:103F900000D1F5E16346002B00D1D6E10D9B002B4B
:103FA00000D182E10B1BD14631009A463B00A1446F
:103FB0002E005F464D4622009B46894609E04B464F
:103FC0003900541CB0475346185D002800D192E1D7
:103FD00022009542F3D14B465A46A946BB463500CE
:103FE00017001E004C460B9B002B00D0ADE1149B2C
:103FF0000D9387E6B53C0010A0110020AC640010C2
:10400000F06400103C650010419000000B9A2838C5
:1040100002430B9242465242787890460F000D932D
:10402000013196E678786C2800D15DE180230B9A07
:104030005B001A430B920131B3E680239B00ABE691
:104040007878682800D148E180230B9A01311A431F
:104050000B92A6E6672800D1B2E0472800D11AE10A
:10406000452800D11CE10B9A0721049242460D9B82
:104070000392073352468B43190002920CC9280061
:10408000009201930D91220033005946FFF700FA88
:10409000040037E6462800D18DE00B9A07210492F0
:1040A00042460D9B0392073352468B4319000292FE
:1040B0000CC92800009201930D912200330059464B
:1040C000FFF718FC04001DE6631C9846220033002D
:1040D00059462520A847444614E60D9B04330F9308
:1040E000631C99460B9B9A0700D40AE10D9B2200A2
:1040F000187859463300A84743464444012B00D85A
:104100006FE1B0462E0025004C46B9465F462200BE
:104110004346013439002020B047AC42F7D12C008F
:10412000BB4635004F4646460F9B0D93EAE5D64BFE
:1041300038789A4600239846002800D0D3E500241A
:104140006FE66F2842D000D8FDE11023782800D117
:104150009BE00B9A9A430B920A239C4600231493EC
:104160000A330F9338E057460B9AB900C919490032
:1041700001330F181878303F010030390929F4D97C
:10418000BA460B921F00591CE7E50D9BB87804CB8B
:104190000237D143C9170A4092460D93791CDCE5DA
:1041A000002800D1DFE602235B42C8E621200B9AFB
:1041B0000243914676E620230B9A1A430B926CE752
:1041C00080230B9A1B011A430B924CE708239C4651
:1041D0000023149308330F930B9880230200DB0015
:1041E0001A4011000200184200D080E00C239A43CC
:1041F0001000802302009B001A400B92184200D04E
:10420000F1E0802302005B001A4091460D9A0432CF
:104210001492184200D0C3E2430600D5D7E003064B
:1042200000D421E30D9B1B880993002B00D02DE1C6
:1042300010339843002900D128E1002399464346D2
:104240000593534604930F9B069003930023029318
:104250004B4601931CAB22000093594633002800C3
:10426000FEF7DEFF0400C2E6582809D0622800D01D
:10427000E3E202239C460023149302330F93ABE73F
:1042800020230B9A1A430B92103B9C460023149355
:1042900010330F93A0E780230B9A1B011A430B9254
:1042A00020230B9A1A430B92DDE60B1B9A460F9BB9
:1042B00099463B0037005E469B4622003B0031009A
:1042C000A84753460134185D0028F6D14B460F939A
:1042D0005B46B3463E001F0085E6C0230B9AB878C4
:1042E0001A430B92F91C5CE5C0239B00F6E70D23F3
:1042F0009A4310007DE75B463500BB464E461F00E3
:1043000071E64346012B66D9631E434432002E00FA
:104310001D003B00A2465F4691469B4622004B464D
:10432000013439002020B047AC42F7D15B4635005C
:10433000BB464E46A14654461F000D9B4A46187880
:10434000594633004444A847EEE60F9BA1469845E2
:1043500000D84CE64444E41AB0462E0025004C46F2
:10436000B9465F4622004346013439002020B04759
:10437000AC42F7D12C00BB4635004F46464636E6E8
:104380000F98804500D873E24346E218131A3200B2
:104390002E001D003B0091465F469B460F91220078
:1043A0004B46013439002020B047AC42F7D15B4680
:1043B000BB461F0043460F9901330F930B7835001E
:1043C0009C464E466046002800D0E7E50FE60D9B70
:1043D0001B78099329E70D9B220018785946330072
:1043E000A8474C46A0E60D9AFA3BFF3B07329A439A
:1043F0000133994691444B460D93136852681592C8
:104400001A4306D11032904300220992002900D0AD
:1044100083E06122810600D54122D2B20A9214AA19
:1044200091460A9A00210A3A0B9242461792524646
:1044300018925A46B24609911E001F31149B4944F6
:10444000BB4616941A950024674698468946159DE2
:1044500019901B920AE03032D2B24B4601341A5501
:10446000A8454CD0202C4CD006000D003A0000236B
:1044700030002900FDF7ACFFD2B2092AEBD90B9B23
:104480009C466244D2B2E8E7713100106123820693
:1044900000D54123DBB20A3B0B93434614A91F22EC
:1044A0008C46159353466244B2460D9417974C467A
:1044B0008046A9461700099D0F9E169308E03033E9
:1044C000DBB201343B55B5420ED3202C0CD0050095
:1044D00031002800FDF73EFFCBB20929EFD90B9A36
:1044E00094466344DBB2ECE7159B40469846169B26
:1044F0004D465646A1469A460D9C179F9FE6B742E9
:10450000B0D9179B56469846189B5F469A461B9B08
:1045100009949B46169C19981A9D43460593534649
:1045200004930F9B0690039300230293099B01932E
:104530001CAB22000093594633002800FEF770FEA2
:104540000400FFF7DFFB10230B9A9A430F926928B0
:1045500000D091E10B9980230A00DB001A40100083
:104560000A00194203D0112118008A430F920F9AB2
:10457000802311009B0019408C461A425BD1802396
:1045800011005B00194089460D9904310B911A42C4
:1045900000D0B2E013005B0600D4EDE00D9B1B7869
:1045A0001A00D90F0D91002B00D1A3E0100014AA1E
:1045B000944642461F23159252466344A846BA4683
:1045C0004D461494B14604001F00169201E0202DC0
:1045D0000FD020000A21FDF7BDFE01357E193031D4
:1045E000317020000A21FDF7B5FE26000400092ED7
:1045F000EDD8159B4E46A94645469846169B57460C
:104600009A46149C0F9B0693434605935346049386
:104610000A2303930D9B02934B4601931CAB22008C
:104620000093594633002800FEF7FAFD0B9B040067
:104630000D93FFF767FB07220D9B0733934301326E
:1046400094469C4462460D920CCBD90F0B911100FD
:10465000194300D19BE0D917139112915140109149
:1046600013995940119110981199129A139B801A1D
:1046700099411090119114AA944642460023159234
:1046800052469946169232001F336344A8464E465E
:10469000BA4614941F00109C119D914601E0202EF3
:1046A00010D0200029000A220023FDF791FE0136D8
:1046B00030322B00BA550D0022000400002BEED141
:1046C000092AECD8159B10941195454698464B46FF
:1046D000169AB14657461E009246149C0F9B0693AD
:1046E00043460593534604930A2303930B9B02937B
:1046F0004B461CE7002885D159E70D9B1B68DA0F54
:104700001100002B00D1A6E0DA179818504014AA27
:1047100091461F2342464B44A8460D941697040029
:104720006546B1461F001491159201E0202D0FD06F
:1047300020000A21FDF70EFE01357E19303131705F
:1047400020000A21FDF706FE26000400092EEDD800
:10475000159BAC4645469846149B4E4619000D9C49
:10476000169F0F9B0291069343460593534604936D
:104770000A230393634650E713001B066ED50D9B77
:1047800000229B5ED9175A184A4092B209E70023CB
:1047900099460028A2D100220023109211936AE7C3
:1047A0000D9B1B689946002B03D1103398430029B9
:1047B00038D16123820600D54123DBB20A3B0D9339
:1047C00043461693534614A91F228C4617932B0079
:1047D00062444D46B2461594189780461700994694
:1047E0000B9C0F9E08E03033DBB201343B55B542E1
:1047F0000ED3202C0CD0050031002800FDF7AAFDB7
:10480000CBB20929EFD90D9A94466344DBB2ECE7A9
:10481000169B40469846179B56464D469A460B9423
:10482000189F159C43460593534604930F9B06908F
:104830000393002302930B9B0BE50B9980230A0043
:10484000DB001A4010000A00194200D08BE610234A
:104850009A430F928BE6002883D158E70D9B1B6883
:10486000D9175A184A409CE60D9B1B680993DCE453
:10487000030001330F93A5E50B926DE400B585B0FD
:104880000391012102900093034813004A4202A9B8
:10489000FFF710FA05B000BD8134001010B5094AC9
:1048A0000300146884B0002C08D00122009106484F
:1048B000524203A9A047012004B010BD00F0AAF99C
:1048C0000020F9E7A01100207134001000BEFDE7C0
:1048D000094A03001068002805D00849C3188B4214
:1048E00007D81360704706480449C31810608B420C
:1048F000F7D901204042F5E79C1100200000042078
:10490000CC11002010B5FFF7E1FFC04670B5FDF7F0
:10491000D5FB074D074EB54209D20024013E761B58
:10492000B60808CD984723000134B342F9D170BDD1
:104930000C6100102C610010030010B5080011007C
:104940001B68984710BDC046F0B5C64600B5437D0C
:1049500007000D001600002B38D0002A2EDD0021A4
:104960006A1E90466A5C037D4C1C00200A2A0CD00B
:10497000A64216D043461B5D21000D3B5A425341CF
:104980006A5CDBB24C1C0A2AF2D1002BF0D18842BF
:1049900017DB022110483B689847A64207D0200049
:1049A000E8E7864203DD311A3B6828189847AD19BD
:1049B000013D2B780D3B5A4253413B7580BCB846B4
:1049C000F0BD091A3B6828189847E2E70368110010
:1049D00028009847F2E7C04698660010F0B5C64632
:1049E0000B6806000C0000B5802B06D05A1C226014
:1049F000E418267180BCB846F0BD0F4B1D68002D31
:104A000016D00B1D98460D4F02E02D69002D0FD0DA
:104A10002B68002BF9D03B68002B01D0AB42F4D1BE
:104A2000280041462268FFF78FFF2D69002DEFD146
:104A300001220023DBE7C0469411002098110020DA
:104A4000F0B5DE4657464E464546E0B585B0170000
:104A50001C0006000D00FCF7C1FE0023314A1218AD
:104A60004B41802109068B4202D301222E4B524238
:104A70002E4908008A4601F023FB01906B1C03D1EC
:104A8000300001F019FA0500002C26D0284B98467A
:104A9000284B1C68002C15D0002F21D1264F02E096
:104AA0002469002C0ED02368002BF9D03B68002B22
:104AB00001D09C42F4D120002A003100C047246973
:104AC000002CF0D1019B002B28D1280005B0F0BCB0
:104AD000BB46B246A946A046F0BD184B9846D7E75C
:104AE000154B994602ABDF1D0A239B4602E0246961
:104AF000002CE7D02368002BF9D04B461B68002B15
:104B000001D0A342F3D12A0031002000C0475B4608
:104B10000122390020003B70C047E8E7504601F011
:104B2000A7FAD2E740420F00FFFFFF7F34090020C1
:104B300049490010941100209811002039490010B3
:104B40000A4A1368002B05D10CE01A001B691032C9
:104B5000002B07D09842F8D1002902D103691360D5
:104B6000016170470029FCD01060FAE79411002021
:104B700010B500F0B1F9012010BDC046F0B5CE4629
:104B8000474680B583B06B460600DD1D2870FCF7F4
:104B900025FE00231A4A12184B41802109068B4238
:104BA00002D30122174B524217490800884601F0F0
:104BB00087FA164B81461C68002C14D0144F02E073
:104BC0002469002C0FD02368002BF9D03B68002B00
:104BD00001D09C42F4D1200001222900FFF7B4FE4D
:104BE0002469002CEFD14B46002B05D1300003B0D7
:104BF000C0BCB946B046F0BD404601F039FAF5E711
:104C000040420F00FFFFFF7F340900209411002075
:104C10009811002070B5040001F04EF90123010045
:104C2000050001222000FFF70BFF084B1C68002C39
:104C300006D06368002B05D098472469002CF8D172
:104C4000280070BD2469002CF3D1F9E794110020ED
:104C5000F0B5CE46474680B5A3B004000D00FCF782
:104C6000BDFD0023294A12184B41802109068B42C1
:104C700002D30122264B5242264F380001F020FA7F
:104C800000230600019322002B00234801A9FFF70F
:104C9000F5FD019B8046002B14D1204B1C68002C95
:104CA00006D06368002B0BD098472469002CF8D1FC
:104CB000002E25D1404623B0C0BCB946B046F0BD59
:104CC0002469ECE7154B1D689946002D1CD0144C47
:104CD00002E02D69002D0FD02B68002BF9D023683E
:104CE000002B01D0AB42F4D12800019A02A9FFF7B2
:104CF0002BFE2D69002DEFD14B4601951C68CEE7A8
:104D0000380001F0B5F9D5E70195D1E740420F0031
:104D1000FFFFFF7F34090020DD49001094110020BF
:104D2000981100200FB400B583B004A901C9019106
:104D3000FFF78EFF03B008BC04B01847F0B5002998
:104D400015DD0E4B0D271A680D4B0E4CD3185D4226
:104D50006B41451820215B001E5F0478A64207D0F6
:104D600093691942FCD101301460A842F5D1F0BD1D
:104D700093691942FCD11760F2E7C046C4110020C4
:104D80000080FCBFC0110020204B70B504000D1E38
:104D90001E682ADD002010211D4B013C1A68936912
:104DA000194214D1013093691942FCD1136823547C
:104DB0008542F4D1002E08D050239363516B183BE9
:104DC0000B4014498C466244136028000CE0002E0E
:104DD00008D050239363516B183B0B400D498C4610
:104DE0006244136000280DD070BD002E0AD05022FE
:104DF000074B1B689A63596B183A0A4005498C4661
:104E000063441A6003204042EEE7C0465C11002074
:104E1000C411002034100000064B10B51B68002B95
:104E200006D00021044A12689163044A106898472A
:104E300010BDC0465C110020C4110020601100208C
:104E40000822034B19688B691A42FCD17047C0468F
:104E5000C4110020F8B51A4F1A4B3A680500D31850
:104E600058424341184E14331C003368002D02D0C1
:104E7000002B0FD0F8BD002BFCD000212000956343
:104E8000FBF758FF20001149FBF790FF104B3560EE
:104E90001D60EFE70E4B200019600C493560FBF7F1
:104EA0005BFF01212000FBF745FF50223B689A631E
:104EB000596B183A0A4007498C4663441A60D9E78F
:104EC000C41100200080FCBF5C110020194E0010AE
:104ED00060110020341000000D4B10B51B780D4BF5
:104EE0000D4C1B780D4B02211B780D4B00202360CD
:104EF000FBF73CFE02210120FBF738FEE121206890
:104F00004902FCF7B9FC01210648FFF719FE10BD64
:104F1000E8670010E4670010C4110020E06700108B
:104F200000400340E003002010B50A4B0A4AC418B1
:104F3000240DA40082B0009208482200E31CFBF775
:104F40007FFE844202DC001B02B010BD0120404203
:104F5000FAE7C0460000E0AFC86200106811002008
:104F6000F0B55746DE464E4645468846E0B583B026
:104F700006000524FBF72CFE434684461C5718798F
:104F8000364B374AF3181B0D9B009246D758012227
:104F90008240013A002C42DB2021091A8C423BDC82
:104FA0001100A14025000F4236D1414609688946CB
:104FB0004146897900294DD1AA4093463A423FD1D2
:104FC0008021890100228846002816D06146A44627
:104FD00034004E469946030001915100705A4045F5
:104FE00000D24019511912318900013208519342FF
:104FF000F3D8019B64469C464B465A46174352469B
:10500000D7506046FBF7F0FD200003B0F0BCBB4674
:10501000B246A946A046F0BD01246442F1E720242F
:10502000241A0DD41100A14025008B46394205D128
:1050300009E01100A14025000F42B6D0013CF8D292
:1050400009246442DDE7424612689146424692795D
:10505000002AB5D014246442D3E7C0460000E0AF74
:1050600054100020F0B54E464546DE465746E0B5A2
:1050700083B089460CA984460D781F2A45D8494635
:10508000490088464944C900461837003400DC37D7
:105090003868CC3483462068310001901C48802455
:1050A0008246A40251440C6069424D411E216D426A
:1050B0008D4318498A465544052B0CD9A0201F2141
:1050C0004005D836540104430532053B3C600A4094
:1050D0003560052BF6D852019B06134342464A44DD
:1050E000D20062441000DC3213600300D8331D602C
:1050F0005B461360019BCC300360002003B0F0BC22
:10510000BB46B246A946A046F0BD05204042F5E7A1
:10511000CC3000009FE00000F0B501258D40046810
:10512000AC430460002B2ED04D006C18E400041931
:1051300026001F68C83637609F68043677605F684E
:10514000DB68DC34376023606B18184DDB00AC463D
:105150008025C41864442D0625602560144C0D1D5F
:105160008C40846001242600AE40802508318C40AC
:105170001F21AD014519C0180A40D8302E602C609F
:1051800002600020F0BD4D006C18E40004192600F8
:105190008027C8367F023760C0273F03B760F827F3
:1051A00004367F02DC3437602360CDE7D010000086
:1051B00001010101F0B5CE464746002580B53B4EC2
:1051C00089B03B487560B560F56000F085F808234C
:1051D0000293384B0400039309230593364B04953F
:1051E00006930423079300283FD0344D23782800EA
:1051F0003A3B5A425341E4180F22210000F0BCFD13
:10520000002802D1E37B2E2B16D020003A2100F09B
:105210006FF8041EEAD1079C402C24DC049B002B71
:1052200000D106333E335C43A400F46020D109B0C2
:10523000C0BCB946B046F0BD08AB9946103402AFC9
:105240003B6878689846002B05D01A00210000F0D2
:1052500093FD002803D14346E35C3D2B13D00C376C
:10526000B945EDD1D1E74024D8E78824E400F460C3
:105270002000FDF747FFB060002815D000237060C4
:1052800004604360D3E7404601302018002201A9A2
:1052900000F042F9019C23783A2B01D0002BB4D1C5
:1052A0000028B2DBB860B0E7F060C0E73010002043
:1052B000EC620010006300100C6300101863001013
:1052C000030010B50A0003490868190000F09AFDB0
:1052D00010BDC046F803002000B5044B83B00100A8
:1052E00001AA186800F08EFD03B000BDF80300208D
:1052F0000323CAB2F0B50340002A35D00324002BA3
:105300002DD1FF230B401D02ED182B04ED182C00AE
:105310000168264E4C408B198B43A119A143244EA2
:105320000B43334211D14168204F0C00CB196C4024
:105330008B43E119A1430B4304303342F3D003788C
:10534000002B05D09A4204D001300378002BF9D10C
:105350000020F0BD9342FCD001302042D1D0037830
:10536000002BF7D10020F4E7002B08D0032202E045
:105370000130104203D00378002BF9D1E9E702682D
:105380000A4B0B49D31893430B4206D14268074B93
:105390000430D31893430B42F8D00378002BD8D0B5
:1053A00043780130002BFBD1D3E7C046FFFEFEFE61
:1053B00080808080F0B557464E464546DE4688469A
:1053C000E0B50C0092461E00082183B001904648CB
:1053D00023001D780134425D1142F9D12D2D5ED09C
:1053E000002293462B2D33D0002E07D1302D62D0D2
:1053F0000A23052199463D4F0A360DE0102E53D061
:10540000012031004042FCF7A5FF070001203100D8
:105410004042B146FCF79EFF002200202B00303BAB
:10542000092B07D9113B192B03D92B00613B192BF1
:1054300011D80A339E420EDD551C06D0B84221D841
:105440001ED04A4650430122181825780134E5E75A
:1054500025789C1CC8E7531C17D05B46002B00D056
:1054600040425346002B04D0002A15D153464246F1
:105470001A6003B0F0BCBB46B246A946A046F0BDD8
:105480008B42DEDD01225242DFE722230199100028
:105490000B605346002BECD0631E9846E6E7257858
:1054A0009C1C01239B469FE7302D0FD010230F211A
:1054B00099460F4FB0E7202223789343582B0AD008
:1054C00008230721994608260A4FA5E720222378BA
:1054D0009343582BEAD1102365780F219946102663
:1054E000034F023498E7C046B9660010999999199C
:1054F000FFFFFF0FFFFFFF1F10B5FFF75BFF10BDA2
:1055000010B504001300034A10680A002100FFF7D9
:1055100051FF10BDF803002010B504001300034A2A
:1055200010680A002100FFF745FF10BDF8030020B6
:10553000014B18687047C046F8030020F0B54E468E
:105540004546DE465746E0B50D000B35060085B0F2
:10555000162D27D8102900D9DAE000F0A1FC10257B
:1055600018230221C84FFB181A005C68083A9442BD
:1055700000D147E103226368A1689343E268CA60EF
:1055800091600121E3185A6830000A435A6000F024
:1055900089FC2000083005B0F0BCBB46B246A946E5
:1055A000A046F0BD07239D4300D5B1E0A94200D934
:1055B000AEE000F075FCFC235B009D4200D296E15A
:1055C000690A00D1A8E0042900D950E1382398469F
:1055D000A90988443931CB00082252429446AA4F87
:1055E000FB189C446346DC68A44514D00323994609
:1055F0000B0061469C4607E0E068002A00DBFBE008
:10560000814200D1FCE004004A46636893435A1B80
:105610000F2AF1DD41463A003C690832944200D13C
:10562000D9E0032063688343581B0F2800DD62E143
:105630003A617A610028A4DA7A6890468022920062
:10564000934200D3E4E0DA0858090123834040463E
:1056500018438046D300DB199A687860E360A26043
:105660009C60D46001208B10984040455CD8434634
:1056700003420AD1032399434346400004310342C5
:1056800003D1400004310342FBD00323B3469C46C0
:105690000E00B8460190F00040440100B246CB68CD
:1056A0000BE064465A681F00A243DB68541B0F2CB2
:1056B00000DDEFE0002C00DB09E19942F1D101238C
:1056C0009946CA44534608319B07E8D1032205E0B6
:1056D00003680838013E834200D003E23242F7D12A
:1056E0004346019A5B68934342465360019A5200D5
:1056F00001929A4216D8002A06D113E0042291465C
:10570000019ACA44520001921342F7D05646C2E7AA
:105710000C23002033603EE780233F224021904647
:105720009B0059E75E4647460322BC686368934383
:105730009A46AB4202D35A1B0F2A4FDC2300534434
:105740000293524B082099461B6810335B19019352
:1057500000F04AFB4E4903900B688B46013306D09C
:105760008446019B4242013B634413400193300055
:10577000019900F0CFFB03008046013300D1D8E04F
:10578000029B834200D9D2E04B4601995A688C466D
:10579000624403995A60029B10000139434500D0CE
:1057A000E5E043460B4200D0E1E0BB6801219846AA
:1057B000634653440B4341464B604946C96A914294
:1057C00001D24946CA624946096B914201D2494613
:1057D0000A634446AFE07B68984643E7012329000B
:1057E0001A431943651961603000BD606A6000F0BA
:1057F00059FB20000830CEE6A268D0608260C0E687
:10580000614608E7DC680231A34200D103E7B1E654
:105810005A0A042A00D883E0142A00D908E11000AB
:105820005B3082465C32D200082040428446BA187F
:105830009444624692680B308146944500D1DFE083
:105840000800A2466146844602E09268914204D074
:105850004C465068A0439842F7D8D36861465446F6
:105860009C466346A260E3609C60D460FAE614291B
:105870006ED9542900D9E4E06E239846290B884458
:105880006F31CB00A8E6C046280500201C0D002083
:1058900020050020BA460120514684464919054397
:1058A00050464560856847466046EB605E469D60B1
:1058B000534639617961204308374860CF60300032
:1058C0008F609C5000F0EEFA5046083063E6BA460E
:1058D00001205E465244516801435160BA6830006D
:1058E000D3609A6000F0DEFA3800083053E62B00EF
:1058F000E908083336E66119884601218C460D43D4
:105900004146656039617961CA608A6062460243D6
:105910004A60E050300000F0C5FA200008303AE656
:105920009A091000393238308246D2007CE7BC42F6
:1059300014D0BC686368032293435A1BAB4202D362
:105940000F2A00DD4AE7300000F0ACFA002022E622
:105950005B23984688445C31CB003DE64B46586853
:10596000019B9C464B4660445860039B591E5B4616
:105970001B68013370D04346029A9B1A4A461B1893
:1059800053600723424640461A400292184240D0D4
:105990000398013384469B1A019A98444244019229
:1059A00063440A409B1A194030008B4600F0B2FA5B
:1059B000431C77D04346C01A03005B4401934B4617
:1059C0005A6801205A445A6043464146BB60019BD5
:1059D00003434B60BC4200D1EFE653460F2B3FD947
:1059E00007210C3B8B43616801400520194361602E
:1059F000E118486088600F2B49D843465B68DCE6B5
:105A000053469810012383404046184380467860EF
:105A100027E7019B039A43440B40D31A19403000F7
:105A20008B4600F077FA431CC4D100239B46C6E79F
:105A3000542A17D81A0B10006F326E308246D200EB
:105A4000F2E6AA235B00994217D8DD3B9846E90BA2
:105A500088447831CB00BFE55B4642461A6090E748
:105A6000486070E7AA204000824226D8DA0B100076
:105A7000783277308246D200D6E61C4B994226D83F
:105A80007C239846A90C88447D31CB00A4E52100F5
:105A90003000083100F086F84B465A68BB689846DB
:105AA0005B688AE6019A029B94464246083B63443F
:105AB0009B1A019300239B4681E70C4882420CD835
:105AC0009A0C10007D327C308246D200ACE6FE2378
:105AD0007E227F2190469B007EE5FE227E20920062
